:020000040800F2
:10000000004001200917000807170008051700081D
:100010000517000805170008051700080000000074
:1000200000000000000000000000000007170008AA
:1000300007170008000000000717000885070008E0
:100040000517000805170008051700080517000820
:100050000517000805170008051700080517000810
:100060000517000805170008051700080517000800
:1000700005170008051700080517000805170008F0
:1000800005170008051700080517000805170008E0
:1000900005170008051700080517000805170008D0
:1000A00005170008051700080517000805170008C0
:1000B000051700085907000805170008051700086C
:1000C00005170008051700080517000805170008A0
:1000D0000517000805170008151200080517000885
:1000E0000517000805170008051700080517000880
:1000F0000517000805170008051700080517000870
:10010000051700080517000805170008051700085F
:10011000051700080517000805170008051700084F
:100120000517000880B582B002AF00F039FB00F07F
:1001300077F800F015F814230093054B054A06499B
:10014000064800F0EBFB054800F010FCFBE700BFA1
:1001500010010020FC000020004400402401002089
:1001600080B500AF40F2833001F04AFA4FF470439B
:1001700000220121024801F0CCF800BF80BD00BF81
:10018000000C024080B485B000AF78600B46FB7075
:100190000023FB7307E0FB7B7A68134400221A708C
:1001A000FB7B0133FB73FA7BFB789A42F3D300BFEE
:1001B00000BF1437BD4680BC7047000080B500AF5B
:1001C0004FF4607001F01CFA0223002201210A485A
:1001D00001F09FF8042301220021074801F099F85B
:1001E00040F2813001F00CFA18230022012103486B
:1001F00001F08FF800BF80BD000002400004024003
:1002000080B500AF40F2823001F0FAF9802300227D
:100210000121024801F07DF800BF80BD00080240C6
:1002200080B500AF00F0E0FAFFF7C8FFFFF7E8FF86
:1002300000BF80BD80B500AF18210A4801F066F804
:100240000221094801F062F88021084801F05EF8B7
:100250000221054801F058F8052000F0E7FA00BF38
:1002600080BD00BF000402400000024000080240C0
:100270002DE9B04F88B000AFC7E900010023FB773C
:100280004FF001024FF00003C7E904233B46FB6037
:100290000221684801F038F8052000F0C7FA002371
:1002A0007B8182E00023FB7777E0634B1B78042B94
:1002B0006AD801A252F823F0CD020008E502000836
:1002C0001D030008330300084903000808215B48A8
:1002D00001F01CF880215A4801F018F8564B012211
:1002E0001A705AE0FB68D3E90001D7E9042300EA59
:1002F000020401EA030554EA050304D008214F482B
:1003000001F002F803E008214C4800F0FFFF4A4BDF
:1003100002221A70322000F089FA3EE0802148481B
:1003200000F0F2FF444B03221A70142000F07EFA12
:1003300033E08021424800F0E9FF3F4B04221A706D
:10034000322000F073FA28E0D7E9042312EB020A06
:1003500043EB030BC7E904ABFB68D3E90001D7E922
:10036000042300EA020801EA030908F1FF3353EA13
:10037000090303D00821314800F0C8FF2E4B0022AA
:100380001A700123FB7708E008212C4800F0BEFF1B
:1003900080212B4800F0BAFF00BFFB7F002B84D0E8
:1003A0007B899BB201339BB27B817B899BB2262BDD
:1003B0007FF678AFD7E9040102F0D6FB04460D467C
:1003C0004FF000021F4B4FF000004FF0804101F052
:1003D00029FA02460B462046294602F063FE0346F0
:1003E000002B00D120E0184B1B78002B1CD01021D3
:1003F000124800F089FF0F2000F033FA10210F4857
:1004000000F084FF02210B4800F080FF052000F07F
:1004100028FA4FF001024FF00003C7E9042300233C
:100420007B81094B00221A7000BF2037BD46BDE812
:10043000B08F00BF00000240F40000200004024022
:100440000008024000804340F500002080B584B0E1
:1004500000AF0346FB710023FB7310E008210C483A
:1004600000F052FF962000F0E1F90821084800F062
:100470004DFF322000F0DAF9FB7B0133FB73FA7B8E
:10048000FB799A42EAD300BF00BF1037BD4680BD5A
:100490000004024080B500AF0821064800F034FF98
:1004A000962000F0C3F90821024800F02FFF00BF9A
:1004B00080BD00BF0004024080B584B000AF034699
:1004C0000A46FB711346BB800023FB7311E08021B9
:1004D0000C4800F019FFBB88184600F0A7F98021EE
:1004E000084800F013FF142000F0A0F9FB7B013353
:1004F000FB73FA7BFB799A42E9D300BF00BF103748
:10050000BD4680BD0008024080B500AF10210648FE
:1005100000F0FAFE0F2000F0A4F91021024800F0CC
:10052000F5FE00BF80BD00BF0004024080B582B070
:1005300000AF0346FB71FB79052B0ED0FFF7AAFF36
:100540000F2000F073F90F210220FFF7B5FF0A20FA
:1005500000F06CF9FFF7D8FF0CE0FFF79BFF0F20CE
:1005600000F064F94FF47A610120FFF7A5FF0A203B
:1005700000F05CF900BF0837BD4680BD80B500AF14
:10058000FFF758FE51E0334B1B78013B062B40D858
:1005900001A252F823F000BFB5050008C705000806
:1005A000D9050008EB050008FD0500081306000842
:1005B0002B060008274B1B781846FFF7B7FF254B83
:1005C00002221A7031E0234B1B781846FFF7AEFF6A
:1005D000204B03221A7028E01E4B1B781846FFF7A9
:1005E000A5FF1C4B04221A701FE01A4B1B781846FB
:1005F000FFF79CFF174B05221A7016E0154B1B786E
:100600001846FFF793FFFFF77FFF124B07221A7080
:100610000BE01821104800F079FE02210F4800F08D
:1006200075FE80210E4800F071FE0A4B1B78072BE7
:10063000A9D11821084800F069FE0221074800F0FE
:1006400065FE8021064800F061FE024B01221A700F
:1006500000BF80BD000000200004024000000240F6
:100660000008024080B582B000AFC7E90001D7E9B9
:100670000001FFF7FDFD00BF0837BD4680BD80B516
:1006800082B000AFC7E900010620FFF7DFFE32208D
:1006900000F0CCF8D7E90001FFF7EAFD00BF08370A
:1006A000BD4680BD80B584B000AF0346FB7102211A
:1006B000154800F029FE052000F0B8F8FB7918462F
:1006C000FFF7C4FE142000F0B1F80023FB7310E024
:1006D00080210E4800F018FE042000F0C2F88021AE
:1006E0000A4800F013FE082000F0BBF8FB7B013342
:1006F000FB73FB7B032BEBD90221034800F006FEC2
:1007000000BF1037BD4680BD000002400008024017
:1007100080B500AF02210E4800F0F6FD052000F084
:1007200085F80B20FFF792FE142000F07FF81021CF
:10073000084800F0E9FD012000F093F81021054879
:1007400000F0E4FD0221024800F0E0FD00BF80BDA2
:10075000000002400004024080B500AF01210748BC
:1007600000F060FF0346002B06D00121034800F093
:100770005FFF034B01221A7000BF80BD00040040E0
:10078000F500002080B400AF044B1B680133034A1E
:10079000136000BFBD4680BC704700BFF80000205A
:1007A00080B500AF0F4800F0DBFE4FF4906000F022
:1007B00027FF41F288314FF0804000F04CFF1821B4
:1007C0004FF0804000F045FF0023002200214FF051
:1007D000804000F030FF4FF0804000F035FF00BF58
:1007E00080BD00BFBC57000880B500AF40F281401B
:1007F00000F006FF1D2000F0D1FF18210A4800F08C
:1008000028FF2821084800F026FF002300220021AD
:10081000054800F010FF0121034800F0FFFE0248E8
:1008200000F012FF00BF80BD0004004080B584B01E
:1008300000AF0346FB804FF0804000F00EFF034600
:10084000FB8100BF4FF0804000F007FF0246FB89AC
:10085000D21AFB889A42F5D300BF00BF1037BD46BD
:1008600080BD80B584B000AF0346FB800023FB81D0
:1008700006E04FF47A70FFF7D9FFFB890133FB8163
:10088000FA89FB889A42F4D300BF00BF1037BD46F7
:1008900080BD000080B500AF4FF4607000F0B0FE86
:1008A0000C2300220221054800F033FD0C22072111
:1008B000024800F04EFD00BF80BD00BF00000240B6
:1008C00080B500AF40F2914000F09AFE002112483E
:1008D00000F0DFFE4FF416510F4800F0C0FE00217B
:1008E0000D4800F0D0FE08210B4800F0C3FE0021A7
:1008F000094800F0DAFE0C21074800F0D0FE064857
:1009000000F0E9FE262000F049FFFFF7C3FF024890
:1009100000F0D1FE00BF80BD0044004080B584B02F
:1009200000AFF860B9607A603B60FB68002B19D0BB
:100930003B68002B16D07B68002B13D0FB68BA688D
:100940001A60FB687A685A60FB683A689A60FB68CC
:1009500002221A73FB6803225A73FB683A7E9A7369
:10096000FFF7AEFF00BF1037BD4680BD90B595B014
:1009700000AF7860002387F84A307B681B7B002B30
:1009800040F02A84002387F84B300CE097F84B3076
:100990009B0050333B44B24A43F8482C97F84B3005
:1009A000013387F84B3097F84B300F2BEED97B682B
:1009B0005B68AC49184602F01DFCF864002387F818
:1009C0004B3011E097F84B309B0050333B44FA6CAE
:1009D00043F8482C97F84B30013387F84B30A14946
:1009E000002002F007FCF864FB6C002BEAD1BB6826
:1009F0009D4A12681146184602F0DAFB0346002BA6
:100A000008D19A4802F0BAFB994BD3E90001FFF7ED
:100A100029FED6E3BB68944A52681146184602F094
:100A2000C7FB0346002B03D1924802F0A7FBC8E3A3
:100A3000BB688D4A92681146184602F0B9FB03461E
:100A4000002B03D18C4802F099FBBAE3BB68864ABD
:100A5000D2681146184602F0ABFB0346002B03D1C7
:100A6000864802F08BFBACE3BB687F4A12691146F3
:100A7000184602F09DFB0346002B03D1804802F08C
:100A80007DFB9EE3BB68784A52691146184602F026
:100A90008FFB0346002B03D17A4802F06FFB90E3F3
:100AA000BB68714A92691146184602F081FB034601
:100AB000002B08D1744802F061FB6D4BD3E90001B3
:100AC000FFF7DDFD7DE3BB68674AD2691146184632
:100AD00002F06EFB0346002B06D16C4802F04EFB81
:100AE0000720FFF7DFFD6CE3BB685F4A126A11461F
:100AF000184602F05DFB0346002B06D1644802F065
:100B00003DFB0820FFF7CEFD5BE3BB68564A526A07
:100B10001146184602F04CFB0346002B06D15D48F7
:100B200002F02CFB0920FFF7BDFD4AE3BB684E4AEB
:100B3000926A1146184602F03BFB0346002B06D191
:100B4000554802F01BFB0A20FFF7ACFD39E3BB68F8
:100B5000454AD26A1146184602F02AFB0346002B8A
:100B600005D14E4802F00AFBFFF7D2FD29E3BB682E
:100B70003D4A126B1146184602F01AFB0346002B41
:100B800005D1474802F0FAFAFFF7F8FC19E3BB6811
:100B9000354A526B1146184602F00AFB0346002BF9
:100BA00002D100F0A7FB0CE3BB682F4A926B114601
:100BB000184602F0FDFA0346002B23D1FB681846C5
:100BC00002F0B8FA034687F84A3097F94A30002B0A
:100BD00007DA97F94A301F2B03DD324802F0CEFACC
:100BE000EFE297F84A3003F01F03D9B2204A137896
:100BF00061F30403137097F94A3019462A4802F04A
:100C0000BDFADEE2BB68184AD26B1146184602F004
:100C1000CFFA0346002B4BD1FB68184602F08AFA44
:100C2000034687F84A3097F94A30002B07DA97F9DC
:100C30004A301F2B03DD1B4802F0A0FAC1E297F8EF
:100C40004A3003F01F03D9B2094A138861F34913EC
:100C5000138097F94A301946144802F08FFAB0E22F
:100C6000405100084451000810000020485100087D
:100C7000080000206051000880510008A8510008B9
:100C8000C8510008EC510008FC510008105200083F
:100C90003052000854520008745200089452000860
:100CA000A8520008BC520008D0520008F4520008B4
:100CB000BB68B84A126C1146184602F079FA03462E
:100CC000002B23D1FB68184602F034FA034687F85C
:100CD0004A3097F94A30002B07DA97F94A301F2B30
:100CE00003DDAD4802F04AFA6BE297F84A3003F0B0
:100CF0000103D9B2A94A137961F3C303137197F9B8
:100D00004A301946A64802F039FA5AE2BB68A14AAD
:100D1000526C1146184602F04BFA0346002B23D1C1
:100D2000FB68184602F006FA034687F84A3097F93E
:100D30004A30002B07DA97F94A301F2B03DD96481B
:100D400002F01CFA3DE297F84A3003F01F03D9B2D3
:100D5000924A136861F3D333136097F94A30194606
:100D6000904802F00BFA2CE2BB688A4A926C11465A
:100D7000184602F01DFA0346002B23D1FB681846E3
:100D800002F0D8F9034687F84A3097F94A30002B29
:100D900007DA97F94A301F2B03DD7F4802F0EEF99E
:100DA0000FE297F84A3003F01F03D9B27B4A538809
:100DB00061F30813538097F94A3019467A4802F0D4
:100DC000DDF9FEE1BB68734AD26C1146184602F0A9
:100DD000EFF90346002B23D1FB68184602F0AAF96D
:100DE000034687F84A3097F94A30002B07DA97F91B
:100DF0004A30032B03DD684802F0C0F9E1E197F8BF
:100E00004A3003F00303D9B2644AD37861F3420352
:100E1000D37097F94A301946644802F0AFF9D0E12F
:100E2000BB685C4A126D1146184602F0C1F90346D0
:100E3000002B23D1FB68184602F07CF9034687F8A3
:100E40004A3097F94A30002B07DA97F94A30032BDA
:100E500003DD514802F092F9B3E197F84A3003F00C
:100E60000303D9B24D4AD37861F3C403D37097F921
:100E70004A3019464E4802F081F9A2E1BB68454A62
:100E8000526D1146184602F093F90346002B23D108
:100E9000FB68184602F04EF9034687F84A3097F986
:100EA0004A30002B07DA97F94A30032B03DD3A4822
:100EB00002F064F985E197F84A3003F00303D9B2F0
:100EC000364AD37861F34613D37097F94A301946FE
:100ED000384802F053F974E1BB682E4A926D11460E
:100EE000184602F065F90346002B2FD197F94A30D6
:100EF000002B07DA97F94A30072B03DD264802F06A
:100F00003DF95EE197F84A3003F00703DAB2234B6C
:100F100002F00101CC01D97801F07F010846214699
:100F20000143D9705208D2B202F0030202F003006A
:100F30001A7922F00302114602460A431A7197F900
:100F40004A3019461C4802F019F93AE1BB68114AC7
:100F5000D26D1146184602F02BF90346002B45D1FD
:100F6000FB68184602F0E6F8034687F84A3097F91E
:100F70004A30012B24D197F84A3003F00103D9B24B
:100F8000064A137961F3820313710C4802F0F6F8F4
:100F900017E100BF10000020BC520008080000202C
:100FA000145300082C5300084C53000868530008E1
:100FB00090530008B0530008CC530008F0530008C9
:100FC00097F94A30002B0DD197F84A3003F001030E
:100FD000D9B2834A137961F382031371814802F015
:100FE000CDF8EEE0804802F0C9F8EAE0BB687F4A3D
:100FF000126E1146184602F0DBF80346002B2ED184
:10100000FB68184602F096F8034687F84A3097F9CD
:101010004A30012B0DD197F84A3003F00103D9B2C1
:101020006F4A137961F3C3031371714802F0A6F894
:10103000C7E097F94A30002B0DD197F84A3003F0FA
:101040000103D9B2664A137961F3C3031371694886
:1010500002F094F8B5E0644802F090F8B1E0BB68A3
:10106000624A526E1146184602F0A2F80346002B5F
:101070002ED1FB68184602F05DF8034687F84A3027
:1010800097F94A30012B0DD197F84A3003F001034C
:10109000D9B2534A137961F304131371564802F01D
:1010A0006DF88EE097F94A30002B0DD197F84A3051
:1010B00003F00103D9B24A4A137961F3041313719F
:1010C0004E4802F05BF87CE0474802F057F878E0C1
:1010D000BB68464A926E1146184602F069F803460C
:1010E000002B2ED1FB68184602F024F8034687F83F
:1010F0004A3097F94A30012B0DD197F84A3003F066
:101100000103D9B2364A137961F3451313713C4890
:1011100002F034F855E097F94A30002B0DD197F8DA
:101120004A3003F00103D9B22D4A137961F3451314
:101130001371344802F022F843E02B4802F01EF805
:101140003FE0BB68294AD26E1146184602F030F8DB
:101150000346002B2DD1FB68184601F0EBFF034638
:1011600087F84A3097F94A30012B0DD197F84A3069
:1011700003F00103D9B21A4A137961F3861313718C
:10118000214801F0FBFF1CE0FB68002B0DD197F814
:101190004A3003F00103D9B2114A137961F386137F
:1011A00013711A4801F0EAFF0BE00F4801F0E6FF67
:1011B00007E07B685B681946154801F0DFFF00F027
:1011C00099F87B6802221A737B685A687B689B7B5C
:1011D00019461046FEF7D6FF00BF5437BD4690BDF6
:1011E00008000020085400082454000810000020C3
:1011F00038540008485400085C540008785400082B
:1012000094540008A8540008C0540008D85400089A
:10121000F454000880B582B000AF0023FB71174B77
:101220001B682021184600F067FA0346002B20D0E7
:10123000124B1B68184600F057FA0346DBB2FB71ED
:10124000FB79DBB20D2B0ED00C4B5B680C4A12788D
:101250001344FA79D2B21A70094B1B780133DAB20F
:10126000074B1A7005E0054B00221A73044B00224D
:101270001A7000BF0837BD4680BD00BF24010020A2
:101280003401002080B586B000AFF860B9607A60A4
:10129000FB68012B02D0FB68022B1ED100237B616F
:1012A00015E07B69BA6813441B780A2B03D10D2122
:1012B0000F4800F005FA7B69BA6813441B789BB2AB
:1012C00019460B4800F0FCF97B6901337B617A69B0
:1012D0007B689A42E5DB7B6906E001F033FF034659
:1012E00005221A604FF0FF3318461837BD4680BDFF
:1012F0000044004080B500AF024801F03FFF00BF4E
:1013000080BD00BF045500088161704709048161F8
:1013100070472DE9F04100264FF0030E0568C468C0
:1013200043FA06F7FF070DD577000EFA07FC01FA1E
:1013300007F825EA0C0524EA0C0402FA07F748EA44
:1013400005053C430136102EEAD10560C460BDE8B6
:10135000F08100234FF00F0CF0B5076A466A42FA9D
:1013600003F4E50707D59D000CFA05F427EA040706
:1013700001FA05F52F430133082BF0D100234FF07C
:101380000F0C03F1080442FA04F4E40707D59C00AB
:101390000CFA04F526EA050601FA04F426430133A3
:1013A000082BEED107624662F0BD0000052824D864
:1013B000DFE800F003090F151B1F114BD3F80008DD
:1013C000C0F3406070470E4BD3F80008C0F34040B4
:1013D00070470B4BD3F80008C0F340007047084B30
:1013E000D3F80008C0F340207047054BD3F8340809
:1013F000F8E7034BD3F83408EEE70020704700BF4E
:1014000000300240024608B51046FFF7CFFF002823
:10141000FAD008BD052825D8DFE800F00311170B26
:101420001D25144AD2F8003843F08073C2F8003802
:101430007047104AD2F8003843F48073F6E70D4A3B
:10144000D2F8003843F48033F0E70A4AD2F8003883
:1014500043F00103EAE7074AD2F8343843F48073D3
:10146000C2F834387047034AD2F8343843F00103E5
:10147000F6E700BF00300240052825D8DFE800F07D
:101480000311170B1D25144AD2F8003823F080737E
:10149000C2F800387047104AD2F8003823F480733D
:1014A000F6E70D4AD2F8003823F48033F0E70A4A11
:1014B000D2F8003823F00103EAE7074AD2F83438BB
:1014C00023F48073C2F834387047034AD2F83438B2
:1014D00023F00103F6E700BF00300240044AD2F8CF
:1014E000083823F003030343C2F80838704700BFED
:1014F0000030024010B5074CD4F8083823F47D03BF
:1015000043EA825343EA814343EA0043C4F808387C
:1015100010BD00BF00300240044AD2F8083823F45E
:10152000605343EAC023C2F80838704700300240D5
:10153000044AD2F8083823F4E06343EA0023C2F8EF
:101540000838704700300240044AD2F8083823F0C7
:10155000F00343EA0013C2F8083870470030024035
:1015600010B504460079012818BF0220FFF752FF8A
:10157000FFF748FFA079FFF7E7FFE079FFF7D8FF13
:10158000207AFFF7C9FF40F29C4000F039F8607AFA
:1015900000F032F900F010F900F018F9607900F06D
:1015A0001FF90020FFF768FF628820792178FFF794
:1015B000A1FF0020FFF72EFFFFF724FF0320FFF716
:1015C0008DFFE268044B1A602269044B1A6062695D
:1015D000034B1A6010BD00BF800000208400002073
:1015E00088000020034B98420CBF034B034B186844
:1015F000704700BF003801408800002084000020B0
:101600000122430903F1804303F50E33196800F00A
:101610001F0002FA00F0084318607047C3680B43CC
:10162000C360704703690B4214BF0120002070475C
:10163000C9430161704710B504681A4324F45C740F
:101640000A432243026010BD036843F001030360B4
:10165000704781627047C1627047406A704738B511
:101660000C460546FFF7BEFF00EB5403B3FBF4F353
:10167000AB6038BDC36808290CBF23F4805343F422
:101680008053C3607047036923F440530B430361E5
:101690007047C36823F4C0630B43C3607047C368DB
:1016A00023F00C030B43C3607047436923F440737A
:1016B0000B4343617047C36843F40053C3607047F2
:1016C00038B504460D4600F013F829462046BDE81B
:1016D000384000F005B8C36843F02003C36070478A
:1016E000C1F30801416070474068C0F308007047CB
:1016F00003681B06FCD5704703680B4214BF01202A
:1017000000207047FEE7704738B51A4A1A4B1B494C
:101710008B421AD300211A4A93421BD34FF0E02286
:10172000D2F8143D174C43F40073174DC2F8143D22
:10173000AC4212D3154C164DAC4212D3FEF7F2FC5C
:10174000144C154DAC4210D338BD52F8040B43F87D
:10175000040BDDE743F8041BDEE754F8043B98472D
:10176000E6E754F8043B9847E6E754F8043B98470B
:10177000E8E700BFA85A000800000020F40000209D
:1017800048010020A85A0008A85A0008A85A0008D2
:10179000A85A0008A85A0008A85A000801224309BC
:1017A0009B0003F1604300F01F0003F5614302FA60
:1017B00000F0186070470000034AD2F8003C43F084
:1017C0000403C2F8003C704700300240034AD2F8DC
:1017D000003C43F00203C2F8003C70470030024076
:1017E000044AD2F8003C23F001030343C2F8003C52
:1017F000704700BF00300240094A0128136823F4F3
:10180000C05306D0022807D008B943F40063136020
:10181000704743F48053FAE743F4C053F7E700BF3F
:10182000007000402DE9F8431D4606460F46144659
:1018300000F0BAF8574B804693F9003089460133DF
:101840002AD022462B462046294601F05DFC18BBD3
:1018500032463B463046394601F056FC002841D11D
:10186000002200233046394601F01CFCC0B10022A2
:1018700000232046294601F015FC00283AD12046D5
:10188000294600F0C3FE38B1204629460022002335
:1018900001F012FC002859D140464946BDE8F883C2
:1018A0004046494600F0B2FE60B3002200234046A5
:1018B000494601F0F7FB0028EED03046394600F0EB
:1018C000A5FE0028E8D02046294600F09FFE00280B
:1018D000E2D001F037FC22234FF000084FF000095E
:1018E0000360D9E7204629460022002301F0DAFBF5
:1018F0000028D1D04FF00008DFF89C9040464946C0
:10190000BDE8F8833046394600F080FE0028CCD090
:101910002046294600F07AFE0028C6D042464B46B3
:101920004046494601F0F0FB30BB01F00BFC22229F
:10193000034639461A6030460022002301F0BCFB02
:101940004FF0000858B9DFF85490A5E701F0FAFB12
:1019500021234FF00008DFF8489003609CE7204601
:10196000294600F05FFE22462B4601F09BFB002833
:10197000E9D1DFF82C908FE701F0E4FB002200238F
:10198000212101601046194601F04EFA8046894631
:1019900082E700BF8C0000200000F03F0000F07FD5
:1019A0000000F0FF000000002DE9F04F994690463E
:1019B00029F000451E46134655EA080293B035D07B
:1019C0006B4A21F00044944283468A460F460090B9
:1019D00025DC34D0954222DC654A95421DD0002F8B
:1019E00036DB00220292002B4CD1614B9D4200F06D
:1019F0009780604B9D4200F0A580B6F1804F00F0CB
:101A0000A3845D4B9E423DD1002F3BDB584651469F
:101A100013B0BDE8F04F00F02FBD002BDFD0009BCE
:101A200004F1404404F5801423430BD10023514CAE
:101A3000CDE90034DDE9000113B0BDE8F08F08B94D
:101A4000A542C9DD4D4813B0BDE8F04F00F0E4BD3C
:101A50004B4A95427EDCA2F1547295420EDD2A1566
:101A6000A2F2FF32142A40F37984C2F1340223FA3D
:101A700002F101FA02F29A4200F0C58400220292B9
:101A8000002BB6D05846514600F0BCFD5B46CDE970
:101A9000000133BB24B1374B27F040429A4220D19A
:101AA000002E07DADDE900230020324901F0BCF9FD
:101AB000CDE90001002FBDDA029B04F1404404F59A
:101AC0008014234340F06F84DDE90023104619465B
:101AD00000F0C8FE02460B4601F0A6F9CDE9000170
:101AE000A8E7029AFB0F013B0A93134335D0254B1D
:101AF0009D424BDD03F104739D42234B40F3BC83B5
:101B00009C4240F34F83002E40F34F8316A3D3E94A
:101B100000231046194601F05DF8CDE9000189E780
:101B2000009A04F1404303F5801313433FF47EAF62
:101B3000154B9C4240F36383002EC0F23683CDE9FF
:101B4000008977E7002EC0F2F58358465146CDE96B
:101B500000016FE70222029245E75A465846534673
:101B60005146B5E7AFF300809C7500883CE4377EB2
:101B70000000F07F0000F03F0000E03FD458000874
:101B8000FFFF3F430000E041FFFFEF3FD44B3B40EE
:101B9000002B40F0CD83DDE900010022D14B01F0A4
:101BA00019F86FF034050C46CDE900012315A3F2B6
:101BB000FF335919CC4BC4F3130242F07F549A42BD
:101BC0000B9144F4401407DDC84B9A4240F3F8836C
:101BD00001310B91A4F58014002200230020002580
:101BE000C349CDE90823CDE90601CDE91023DDE99C
:101BF0000001DDE906232146824600F033FEDDE9DF
:101C00000623A34606460F4650462146CDE90CABB7
:101C100000F02AFE02460B460020B54901F004F907
:101C20008C46834663465A4630463946CDE90EBC5B
:101C300000F0D0FF82468B46631043F0005303F55B
:101C4000002359190D465A46514600230020CDE97C
:101C500000120093044602462B46CDE904ABDDE9B1
:101C600000AB5046594600F0B5FF02460B463046E1
:101C7000394600F0F7FDDDE9062306460F4620460B
:101C8000294600F0EFFD02460B46DDE90C0100F0AD
:101C9000E9FD52465B4600F09DFF02460B4630468A
:101CA000394600F0DFFDDDE90E2300F093FFDDE9AA
:101CB0000445CDE9060122462B462046294600F080
:101CC00089FF75A3D3E9002304460D4600F082FF87
:101CD00073A3D3E9002300F0C7FD22462B4600F092
:101CE00079FF71A3D3E9002300F0BEFD22462B4605
:101CF00000F070FF6EA3D3E9002300F0B5FD22468B
:101D00002B4600F067FF6CA3D3E9002300F0ACFD85
:101D100022462B4600F05EFF69A3D3E9002300F0C2
:101D2000A3FD224606460F462B462046294600F0D4
:101D300051FF02460B463046394600F04BFF044641
:101D40000D46DDE9040152465B4600F08DFDDDE9FC
:101D5000062300F03FFF22462B4600F085FD524649
:101D600006460F465B465046594600F033FF024692
:101D70000B46CDE90C2300225E4B00F075FD324688
:101D80003B4600F071FD00240D4622462B4650468E
:101D9000594600F01FFF002282468B462046294606
:101DA000544B00F05FFDDDE90C2300F05BFD0246C3
:101DB0000B463046394600F055FDDDE9042300F0BE
:101DC00009FF224606460F46DDE906012B4600F0D4
:101DD00001FF02460B463046394600F045FD0646F7
:101DE0000F46002432463B465046594600F03CFD23
:101DF00035A3D3E9002320460D4600F0EBFE524602
:101E00005B4682468B462046294600F02BFD024663
:101E10000B463046394600F025FD2DA3D3E90023BB
:101E200000F0D8FE02460B462046294614461D46C1
:101E300029A3D3E9002300F0CDFE02460B4620463D
:101E4000294600F011FDDDE9102300F00DFD0646E6
:101E50000B980F4600F054FE04460D4632463B46B2
:101E60005046594600F000FDDDE9082300F0FCFC77
:101E700022462B4600F0F8FC224600242B46204642
:101E80000D4600F0EFFCDDE9082300F0EBFC5246C4
:101E90005B4631E0AFF30080EF4E454A287ECA3FF3
:101EA00065DBC9934A86CD3F01411DA96074D13FCE
:101EB0004D268F515555D53FFFAB6FDBB66DDB3FE0
:101EC000033333333333E33F000000E009C7EE3F11
:101ED000FD033ADC09C7EE3FF5015B14E02F3EBE7F
:101EE0000000F07F000040438E98030079B60B009D
:101EF0000000F03F0000084000F0B4FC02460B4632
:101F00003046394600F0AEFC029B0A9A013B13436F
:101F10004FF000020CBFD24BD24BCDE90089CDE986
:101F2000022300230093DDE900ABCDE90401524612
:101F3000404649465B4600F095FC22462B4600F0A1
:101F400049FE424606460F46DDE904014B4600F0D5
:101F500041FE02460B463046394600F085FC5246AB
:101F600006460F465B462046294600F033FE0446EF
:101F70000D4630462B463946224600F075FCBA4BDA
:101F80008046994289468A4640F3148101F13F43D5
:101F900003F5E003034340F0F6819DA3D3E900235A
:101FA0003046394600F060FC02460B464046494642
:101FB0009046994622462B4600F054FC02460B46BA
:101FC0004046494601F096F8002840F0DC81CAF30B
:101FD0000A534FF480120020A3F2FE3342FA03F3B7
:101FE0005344A249C3F30A52A2F2FF3241FA02FC5F
:101FF000C3F3130B23EA0C01C2F114024BF4801B50
:10200000BAF1000F0B464BFA02FB29460246204666
:10201000B8BFCBF1000B00F025FC04460D4630465E
:10202000394622462B4600F01FFC89464FEA0B5AE0
:102030004FF0000878A3D3E900234046494600F05A
:10204000C9FD22462B4604460D464046494600F04F
:1020500009FC02460B463046394600F003FC70A3EB
:10206000D3E9002300F0B6FD6FA3D3E900230646B1
:102070000F464046494600F0ADFD02460B4630464D
:10208000394600F0F1FB8046894642464B462046E1
:10209000294600F0E9FB22462B4606460F4600F093
:1020A000E1FB02460B464046494600F0DBFB324668
:1020B000804689463B463046394600F08BFD5CA39E
:1020C000D3E9002304460D4600F084FD5AA3D3E96A
:1020D000002300F0C7FB22462B4600F07BFD58A3EF
:1020E000D3E9002300F0C0FB22462B4600F072FD2E
:1020F00055A3D3E9002300F0B5FB22462B4600F0A0
:1021000069FD53A3D3E9002300F0AEFB22462B4622
:1021100000F060FD02460B463046394600F0A2FB57
:1021200004460D4622462B463046394600F052FD05
:1021300002460B462046294614461D4600224FF013
:10214000804300F08FFB02460B462046294600F0F4
:102150006BFE424604460D464B463046394600F07B
:1021600039FD42464B4600F07FFB02460B462046B7
:10217000294600F077FB32463B4600F073FB0246EF
:102180000B460020374900F06DFB8A44BAF5801FEA
:10219000C0F235815146DDE9022300F01BFDCDE997
:1021A000000147E4002EFFF6B1AC00230024CDE986
:1021B00000343FE4DFF8B8C021F00043634540F34A
:1021C000DA802C4B0B4403430AD122462B4600F005
:1021D00049FB32463B4600F083FF00283FF4F7AE50
:1021E0001DA3D3E90023DDE9020100F0F3FC1AA3EB
:1021F000D3E9002300F0EEFCCDE900011AE4002E43
:10220000D3DA09F10043CDF80080019312E400BF56
:10221000FE822B654715973C00000000432EE63FE9
:10222000EF39FAFE422EE63F396CA80C615C20BE05
:10223000D0A4BE726937663EF16BD2C541BDBB3ECC
:102240002CDE25AF6A56113F93BDBE166CC1663FAA
:102250003E5555555555C53F59F3F8C21F6EA5015A
:102260000000F0BF0000F03FFFFF8F40FFFF0F00B6
:10227000FFCB904000346F3F9C4293DB7A4B9C42F3
:102280003FF741ACDDE900010022774B00F0EAFAAC
:1022900067A3D3E9002304460D4600F09BFC66A328
:1022A000D3E9002382468B462046294600F092FC63
:1022B0000022CDE900016D4B2046294600F08AFC42
:1022C00002460B465EA1D1E9000100F0CBFA22469E
:1022D0002B4600F07FFC02460B460020644900F0CC
:1022E000C1FA224606460F462B462046294600F0F4
:1022F00071FC02460B463046394600F06BFC52A397
:10230000D3E9002300F066FC02460B46DDE900013C
:1023100000F0A8FA06460F4632463B46504659465C
:1023200000F0A2FA002452465B460D462046E3E543
:1023300000253BE45A46002053464B4900F074FD0B
:10234000CDE90001FFF776BB5A4658465346514641
:1023500000F040FCCDE90001FFF76CBB002B40D141
:10236000C2F1140245FA02F101FA02F2AA4254D073
:102370000293FFF73EBB3E4A934255DCDDE9002362
:102380009246934654E632A3D3E90023DDE90201E5
:1023900000F020FC2EA3D3E9002300F01BFCCDE9C4
:1023A0000001FFF747BB029B012B7FF443ABDDE944
:1023B0000045224605F10043CDE90023FFF73ABB73
:1023C00000222C4B4FF48025CDE9062322A3D3E92C
:1023D0000023CDE9082322A3D3E90023CDE910236C
:1023E00005E45846514600F00DF95B46CDE9000181
:1023F000002B7FF4B2ABCDF808B0FFF74BBB5A46C9
:1024000000F0AEF9C7E601F00101C1F1020202924B
:10241000002B3FF4EEAAFFF735BB01F00101C1F13B
:1024200002030293FFF7E5BA1B15D2E5AFF3008074
:10243000000000604715F73F44DF5DF80BAE543EE7
:10244000555555555555D53FFE822B654715F73FD8
:102450009C7500883CE4377E0000004003B8E23FF2
:1024600006D0CF43EBFD4C3E0000F03F0000D03FD4
:102470000000E03F0000F83F2DE9F843604E0546BC
:1024800036EA01020C4600F09E8000290B46844685
:1024900054DD091562D0C3F31303C807A1F2FF3757
:1024A00043F4801304D45B0003EBDC734FEA4C0C61
:1024B00000264FEADC7202EB43034FF0160E4FF496
:1024C000001234467F104FEA4C0CA118994202DCEE
:1024D0005B1A8C1816445B00BEF1010E03EBDC7333
:1024E0004FEA52024FEA4C0CEFD1754620204FF0D4
:1024F00000420AE043D04FEADC71013801EB4303AC
:102500004FEA4C0C4FEA520242D0A34202EB0E01BA
:10251000F0DD002901EB020E0ADBA0461B1B614522
:1025200088BF03F1FF334446ACEB010C1544E2E7EE
:10253000BEF1000FF1DB04F10108EFE721F00042EA
:10254000024336D000294CD14FEADC22134615391C
:102550004FEA4C5C002AF7D0D6024CD400205B0036
:10256000DD02044600F10100F9D51A4663460CFA73
:1025700000FCC0F12000C340091B13438BE76145F9
:10258000B9D8002901EB020ED2DB98460023CAE736
:1025900053EA0C0311D16808731003F17F5303F55C
:1025A0000013F20748BF40F0004003EB075905460F
:1025B0004C4628462146BDE8F883691C16BF681CB6
:1025C00001364008E8E702460B4600F003FB2A46C6
:1025D000234600F049F905460C4628462146BDE849
:1025E000F883024600F03EF902460B4600F01CFC60
:1025F00005460C46DDE7634620204FF0FF34BAE77E
:102600000000F07F21F00041704700BF41F0004022
:1026100000F58010C00F704700200149704700BFCF
:102620000000F87FF0B5C1F30A55A5F2FF3CBCF1FC
:10263000130F02460B460C46864683B04FEAD1760E
:1026400065DCBCF1000F30DB424941FA0CF103EAD2
:102650000100104361D003EA510352EA030E4FEA2E
:1026600051010DD024EA01014FF48024BCF1130F75
:102670000CBF4FF0004E4FF0000E44FA0CF40C4328
:102680003549234601EBC606D6E900677246304657
:10269000394600F0E9F8CDE90001DDE900013246F4
:1026A0003B4600F0DFF803B0F0BD21F000410143EC
:1026B0001946F8D0C3F3130343EA000ECEF100032A
:1026C00043EA0E03620C1B0B03F40023520443EA9B
:1026D00002010B462049024601EBC606D6E9006717
:1026E0003046394600F0C0F8CDE90001DDE90001CF
:1026F00032463B4600F0B6F8024604F0004421F0B2
:10270000004141EA04031046194603B0F0BDBCF194
:10271000330F06DDBCF5806F18D01046194603B0A4
:10272000F0BD4FF0FF31A5F21345E9400842F4D067
:1027300010EA51024FEA5103A2D04FF0804E20EA36
:1027400003034EFA05F543EA050E99E700F08CF80D
:10275000A9E700BFFFFF0F00685800080000000055
:10276000C1F30A5370B58C4604460D4616467BBB32
:10277000034621F0004C5CEA030328D0324B0022D0
:1027800000F028FA314B04469E420D461ADB8C4677
:10279000C1F30A53363B40F2FE723344934220DCCD
:1027A000002B3EDC13F1350F2CDA4CF250339E42F5
:1027B00017DC05F0004343F0D27141F4B7312448EF
:1027C00041F01F011CA3D3E9002300F003FA70BD00
:1027D00040F2FF7E7345DED102460B4600F044F81E
:1027E00070BD05F0004343F0FC4141F45F1141F43A
:1027F000105113A3D3E90023164841F03C0100F027
:10280000E9F970BD2CF0FF4C03F136012CF4E00C1B
:102810004CEA01550022204629460F4B00F0DAF918
:1028200070BD2CF0FF4C2CF4E00C20464CEA035118
:1028300070BD00BFAFF3008059F3F8C21F6EA50151
:102840009C7500883CE4377E00005043B03CFFFF9D
:1028500059F3F8C29C7500880000903C81F000415B
:1028600002E000BF83F0004330B54FEA41044FEA75
:10287000430594EA050F08BF90EA020F1FBF54EA10
:10288000000C55EA020C7FEA645C7FEA655C00F0AC
:10289000E2804FEA5454D4EB5555B8BF6D420CDD7D
:1028A0002C4480EA020281EA030382EA000083EA00
:1028B000010180EA020281EA0303362D88BF30BDA0
:1028C00011F0004F4FEA01314FF4801C4CEA1131F6
:1028D00002D0404261EB410113F0004F4FEA033355
:1028E0004CEA133302D0524263EB430394EA050FE0
:1028F00000F0A780A4F10104D5F1200E0DDB02FA4F
:102900000EFC22FA05F2801841F1000103FA0EF2E2
:10291000801843FA05F359410EE0A5F120050EF1A8
:10292000200E012A03FA0EFC28BF4CF0020C43FAD9
:1029300005F3C01851EBE37101F0004507D54FF0E6
:10294000000EDCF1000C7EEB00006EEB0101B1F536
:10295000801F1BD3B1F5001F0CD349085FEA30007C
:102960004FEA3C0C04F101044FEA445212F5800F87
:1029700080F09A80BCF1004F08BF5FEA500C50F124
:10298000000041EB045141EA050130BD5FEA4C0C07
:10299000404141EB0101013C28BFB1F5801FE9D264
:1029A00091F0000F04BF01460020B1FA81F308BF87
:1029B0002033A3F10B03B3F120020CDA0C3208DD53
:1029C00002F1140CC2F10C0201FA0CF021FA02F12E
:1029D0000CE002F11402D8BFC2F1200C01FA02F19E
:1029E00020FA0CFCDCBF41EA0C019040E41AA2BFC3
:1029F00001EB0451294330BD6FEA04041F3C1CDA8B
:102A00000C340EDC04F11404C4F1200220FA04F0AA
:102A100001FA02F340EA030021FA04F345EA030154
:102A200030BDC4F10C04C4F1200220FA02F001FA16
:102A300004F340EA0300294630BD21FA04F0294698
:102A400030BD94F0000F83F4801306BF81F4801131
:102A50000134013D4EE77FEA645C18BF7FEA655CA4
:102A600029D094EA050F08BF90EA020F05D054EA76
:102A7000000C04BF1946104630BD91EA030F1EBF7B
:102A80000021002030BD5FEA545C05D1400049417F
:102A900028BF41F0004130BD14F580043CBF01F572
:102AA000801130BD01F0004545F0FE4141F4700158
:102AB0004FF0000030BD7FEA645C1ABF1946104633
:102AC0007FEA655C1CBF0B46024650EA013406BF34
:102AD00052EA033591EA030F41F4002130BD00BFF3
:102AE00090F0000F04BF0021704730B54FF48064B0
:102AF00004F132044FF000054FF0000150E700BF31
:102B000090F0000F04BF0021704730B54FF480648F
:102B100004F1320410F0004548BF40424FF000017C
:102B20003EE700BF42004FEAE2014FEA31014FEABF
:102B300002701FBF12F07F4393F07F4F81F060510E
:102B4000704732F07F4208BF704793F07F4F04BF59
:102B500041F40021704730B54FF4607401F0004536
:102B600021F000411CE700BF50EA010208BF704796
:102B700030B54FF000050AE050EA010208BF704787
:102B800030B511F0004502D5404261EB41014FF4F0
:102B9000806404F132045FEA915C3FF4D8AE4FF0F8
:102BA00003025FEADC0C18BF03325FEADC0C18BFDB
:102BB000033202EBDC02C2F1200300FA03FC20FA2C
:102BC00002F001FA03FE40EA0E0021FA02F1144479
:102BD000BDE600BF70B54FF0FF0C4CF4E06C1CEA92
:102BE00011541DBF1CEA135594EA0C0F95EA0C0F03
:102BF00000F0DEF82C4481EA030621EA4C5123EA76
:102C00004C5350EA013518BF52EA033541F48011A4
:102C100043F4801338D0A0FB02CE4FF00005E1FB57
:102C200002E506F00042E0FB03E54FF00006E1FBA1
:102C300003569CF0000F18BF4EF0010EA4F1FF04E4
:102C4000B6F5007F64F5407404D25FEA4E0E6D4124
:102C500046EB060642EAC62141EA55514FEAC52035
:102C600040EA5E504FEACE2EB4F1FD0C88BFBCF5B1
:102C7000E06F1ED8BEF1004F08BF5FEA500E50F162
:102C8000000041EB045170BD06F0004646EA010128
:102C900040EA020081EA0301B4EB5C04C2BFD4EB5A
:102CA0000C0541EA045170BD41F480114FF0000E53
:102CB000013C00F3AB8014F1360FDEBF002001F0C1
:102CC000004170BDC4F10004203C35DA0C341BDC3B
:102CD00004F11404C4F1200500FA05F320FA04F00D
:102CE00001FA05F240EA020001F0004221F0004141
:102CF00010EBD37021FA04F642EB06015EEA430EB4
:102D000008BF20EAD37070BDC4F10C04C4F12005E3
:102D100000FA04F320FA05F001FA04F240EA020096
:102D200001F0004110EBD37041F100015EEA430E67
:102D300008BF20EAD37070BDC4F1200500FA05F287
:102D40004EEA020E20FA04F301FA05F243EA020306
:102D500021FA04F001F0004121FA04F220EA020015
:102D600000EBD3705EEA430E08BF20EAD37070BD5B
:102D700094F0000F0FD101F00046400041EB01013B
:102D800011F4801F08BF013CF7D041EA060195F01D
:102D9000000F18BF704703F00046520043EB0303D7
:102DA00013F4801F08BF013DF7D043EA06037047C4
:102DB00094EA0C0F0CEA135518BF95EA0C0F0CD0CF
:102DC00050EA410618BF52EA4306D1D181EA030115
:102DD00001F000414FF0000070BD50EA410606BF0F
:102DE0001046194652EA430619D094EA0C0F02D154
:102DF00050EA013613D195EA0C0F05D152EA033699
:102E00001CBF104619460AD181EA030101F00041B6
:102E100041F0FE4141F470014FF0000070BD41F0FF
:102E2000FE4141F4780170BD70B54FF0FF0C4CF4D9
:102E3000E06C1CEA11541DBF1CEA135594EA0C0FF8
:102E400095EA0C0F00F0A7F8A4EB050481EA030E45
:102E500052EA03354FEA013100F088804FEA03332C
:102E60004FF0805545EA131343EA12634FEA0222FA
:102E700045EA111545EA10654FEA00260EF00041BB
:102E80009D4208BF964244F1FD0404F5407402D20D
:102E90005B084FEA3202B61A65EB03055B084FEA9E
:102EA00032024FF480104FF4002CB6EB020E75EB9B
:102EB000030E22BFB61A754640EA0C005B084FEAC3
:102EC0003202B6EB020E75EB030E22BFB61A754640
:102ED00040EA5C005B084FEA3202B6EB020E75EB8B
:102EE000030E22BFB61A754640EA9C005B084FEA03
:102EF0003202B6EB020E75EB030E22BFB61A754610
:102F000040EADC0055EA060E18D04FEA051545EAFE
:102F100016754FEA06164FEAC30343EA52734FEAA7
:102F2000C2025FEA1C1CC0D111F4801F0BD141EA20
:102F300000014FF000004FF0004CB6E711F4801F85
:102F400004BF01430020B4F1FD0C88BFBCF5E06F65
:102F50003FF6AFAEB5EB030C04BFB6EB020C5FEA75
:102F6000500C50F1000041EB045170BD0EF0004ECA
:102F70004EEA113114EB5C04C2BFD4EB0C0541EAFC
:102F8000045170BD41F480114FF0000E013C90E6F9
:102F900045EA060E8DE60CEA135594EA0C0F08BFBD
:102FA00095EA0C0F3FF43BAF94EA0C0F0AD150EABC
:102FB00001347FF434AF95EA0C0F7FF425AF10464F
:102FC00019462CE795EA0C0F06D152EA03353FF477
:102FD000FDAE1046194622E750EA410618BF52EAF4
:102FE00043067FF4C5AE50EA41047FF40DAF52EAC8
:102FF00043057FF4EBAE12E74FF0FF3C06E000BF65
:103000004FF0010C02E000BF4FF0010C4DF804CD71
:103010004FEA410C7FEA6C5C4FEA430C18BF7FEA31
:103020006C5C1BD001B050EA410C0CBF52EA430C5F
:1030300091EA030F02BF90EA020F0020704710F1DF
:10304000000F91EA030F58BF994208BF90422CBF6E
:10305000D8176FEAE37040F0010070474FEA410C67
:103060007FEA6C5C02D150EA013C07D14FEA430C85
:103070007FEA6C5CD6D152EA033CD3D05DF8040BF6
:10308000704700BF8446104662468C461946634628
:1030900000E000BF01B5FFF7B7FF002848BF10F1FF
:1030A000000F01BD4DF808EDFFF7F4FF0CBF012044
:1030B00000205DF808FB00BF4DF808EDFFF7EAFFC0
:1030C00034BF012000205DF808FB00BF4DF808ED7B
:1030D000FFF7E0FF94BF012000205DF808FB00BF70
:1030E0004DF808EDFFF7CEFF94BF012000205DF8FA
:1030F00008FB00BF4DF808EDFFF7C4FF34BF012007
:1031000000205DF808FB00BF4FEA410C7FEA6C5CD1
:1031100002D150EA013C0AD14FEA430C7FEA6C5CD1
:1031200002D152EA033C02D14FF0000070474FF049
:10313000010070470A22002100F080B90A23002212
:1031400000F05AB9014B1868704700BF900000208A
:103150000EB410B5044683B008B183695BB106AB09
:103160002046059AA168019300F080FC03B0BDE8F9
:10317000104003B0704700F095FAF0E70FB410B5B7
:103180000A4B82B01C680CB1A3695BB105AB204649
:10319000049AA168019300F069FC02B0BDE81040F8
:1031A00004B07047204600F07DFAEFE79000002061
:1031B000844610B40E4C1CF8013B11F8010BE25C84
:1031C00002F00302012A225C08BF203302F003024E
:1031D000012A05D01B1A08D10028ECD110BC704779
:1031E0002030181AE7D010BC7047184610BC704742
:1031F00009590008194B70B51D680446AA6D0E46A2
:1032000032B131462046BDE87040012300F02CB8B1
:10321000502000F0CDFA0246A865D0B10023037714
:10322000C0E90033C0E90233C0E90433C0E90A331E
:10323000C0E90C33C0E90E33C0E91033C0E91233E2
:103240008361436231462046BDE87040012300F0AF
:103250000BB85721024B034800F006F990000020FC
:103260007C58000894580008F0B4074610B33E4656
:103270008C4616F8015B01E0A54216D01CF8014B04
:10328000002CF9D1DDB10C4616F8015B01E0002BF2
:10329000F9D014F8013B9D42F9D14DB1002306F855
:1032A000013C38461660F0BC704763B13746DEE734
:1032B0002E46F6E71768002FD9D13846F3E728469F
:1032C0001560F0BC7047166038463B70EBE700BFF6
:1032D0000123FFF7C9BF00BF2DE9F04F81468E469D
:1032E000444D70461EF801CB15F80C4014F008044C
:1032F000F7D1BCF12D0FE34653D06FF00048BCF17D
:103300002B0F04BF9EF800B000F1020E1BB1102B72
:103310004FD01F4604E0BBF1300F55D00A231F46A3
:103320000025B8FBF7F6284607FB168A07E0864219
:1033300015D329D0012507FB00C01EF801BBABF156
:10334000300CBCF1090F06D9ABF1410CBCF1190FDF
:1033500008D8ABF1370C63450DDD002DE7DA4FF0EF
:10336000FF35EAE7ABF1610CBCF1190F03D8ABF103
:10337000570C6345F1DC002D0BDB04B140420AB170
:1033800095BB1160BDE8F08FE245D3DA4FF0FF3511
:10339000D3E72223C9F800301AB340460EF1FF31BB
:1033A000EFE79EF800B04FF00048012400F1020E54
:1033B000ACE7BBF1300FACD19EF8000000F0DF00AD
:1033C000582807D01F46ABE79EF8003003F0DF0314
:1033D000582B0BD110279EF801B03B460EF1020E80
:1033E0009EE74046BDE8F08F8046D6E708231F469B
:1033F00096E700BF09590008012B02D0242B00D802
:103400006AE710B5FFF79EFE16230360002010BD8B
:10341000012A10B509D0242A07D8074C13460A46BA
:1034200001462068BDE8104056E7FFF78BFE1623E3
:103430000360002010BD00BF90000020012A10B5DD
:1034400009D0242A07D8074C13460A4601462068AB
:10345000BDE8104040E7FFF775FE1623036000202B
:1034600010BD00BF90000020144600B51A460A4B5C
:103470000D461B6885B0DE6803464CB107490191D3
:10348000304607490294009500F03AF900F084FFB5
:1034900004490C46F3E700BF90000020C85800081C
:1034A000D8580008D458000808B513460022FFF782
:1034B000DBFF00BF00207047014900F055B900BF95
:1034C000D544000800207047682270B54D1E02FBED
:1034D00005F50E4605F1740100F032FA044640B1DC
:1034E00000210C30C4E9016005F16802216000F0A0
:1034F0006FF9204670BD00BF274B2DE9F0411E68D3
:103500000746B36953B34FF004084836D6E901348F
:10351000013B04D51EE05A1C04F168041AD0B4F92A
:103520000C50013B002DF6D11C4B08222946C4E962
:103530000055C4E90253C4E904556566A56104F168
:103540005C0000F045F9C4E90D55C4E91255204668
:10355000BDE8F08135682DB12E46D7E7304600F042
:103560001FF8D0E74FF4D671384600F0E9F9044669
:1035700068B1056029460546C0F804800C304FF458
:10358000D072A06000F024F934602E46BEE70C2310
:1035900030603B60DBE700BF785800080100FFFFA8
:1035A0000023334A2DE9F0471268C0E912339042F4
:1035B000036508BF01232F4908BF83618162054667
:1035C000FFF79AFF034628466B60FFF795FFA86058
:1035D00028460024FFF790FF04236E68DFF898A0C8
:1035E000DFF89890DFF89880264FE8600822F360B3
:1035F0002146C6E90044C6E904447466B460B46177
:1036000006F15C0000F0E4F81F4BC6E9086AC6E961
:103610000A983763AE680822F3602146C6E9004481
:10362000C6E904447466B460B46106F15C0000F05D
:10363000CFF8164BC6E9086AC6E90A983763EE6800
:103640002146F3600822C6E90044C6E904447466D2
:10365000B460B46106F15C0000F0BAF80123C6E979
:10366000086AC6E90B87C6F82890AB61BDE8F08709
:1036700078580008B9340008154100083D41000899
:103680007D4100089D410008090001001200020070
:10369000024B0349186800F067B800BF785800086B
:1036A000D5440008836903B97AE77047704700BFC3
:1036B000704700BF704700BF704700BF024B03490F
:1036C000186800F031B800BF90000020B534000841
:1036D000024B0349186800F027B800BF9000002093
:1036E000C53400080CB400B583B004AB53F8042B08
:1036F000019300F0BBF903B05DF804EB02B0704732
:103700000EB400B5074A82B003AB0146106853F807
:10371000042B019300F0AAF902B05DF804EB03B0AA
:10372000704700BF900000202DE9F0410026884638
:1037300000F14807D7E90154013D0ED4A389013DAA
:10374000012B06D9B4F90E30013302D02046C04710
:1037500006436B1C04F16804F0D13F68002FE9D1E7
:103760003046BDE8F08100BF2DE9F8434FF0000975
:103770000746884600F14806D6E90154013D10D4B9
:10378000A389013D012B08D9B4F90E30013304D0CF
:1037900021463846C04749EA00096B1C04F1680419
:1037A000EED13668002EE7D14846BDE8F88300BF69
:1037B000024B0146186800F0C3B800BF900000201B
:1037C000024B0146186800F055B800BF9000002079
:1037D000830730B548D0541E002A3FD00346CAB2F2
:1037E00001E0013C3AD303F8012B9D07F9D1032CEA
:1037F0002DD9CDB245EA05250F2C45EA054536D928
:10380000A4F1100222F00F0C03F1200EE6444FEA5F
:10381000121C03F1100242E9045542E9025510322C
:103820007245F8D10CF1010214F00C0F03EB0212F7
:1038300004F00F0C13D0ACF1040323F003030433A2
:10384000134442F8045B9342FBD10CF003042CB107
:10385000CAB21C4403F8012B9C42FBD130BD644624
:103860001346002CF4D1F9E703461446BFE71A4685
:10387000A446E0E7002952D038B551F8043C0C1FAB
:10388000002BB8BFE418054601F0E4F92B4A136891
:10389000002B45D0A3420CD921686018834228D060
:1038A000636028461460BDE8384001F0D5B9A342F2
:1038B0000FD81A465B68002BF9D111685018844262
:1038C0001DD034D3636054602846BDE8384001F011
:1038D000C3B911685018A04215D028D821686018C3
:1038E0008342EFD118685B680144C4E90013546057
:1038F000EAE718685B680144C4E90013D1E723686C
:1039000019441160E0E720680144501883421160B7
:10391000DAD1D3E900030144C2E90013D4E77047C8
:10392000284663601460BDE8384001F095B90C2367
:1039300028462B60BDE8384001F08EB938010020E0
:10394000F8B5CD1C25F0030508350C2D38BF0C2526
:10395000002D064623DBA94221D8264F01F07AF933
:103960003A6822B3144603E063682246FBB11C4662
:1039700023685B1BF8D40B2B15D8636894420CBFEB
:103980003B605360304601F067F904F10B00231DE2
:1039900020F00700C21A01D01B1AA350F8BD0C2357
:1039A00000203360F8BD23601C442560EAE7796895
:1039B000D1B12946304600F09BFB431C01460CD098
:1039C000C41C24F00304A04205D03046611A00F064
:1039D0008FFB013001D02560D4E70C2330463360E3
:1039E00001F03AF90020F8BD304600F081FB786024
:1039F000DFE700BF380100209368013B002B936094
:103A000005DAD2F818C0634507DB0A2905D0136828
:103A1000581C106008461970704700F0C3BB00BF07
:103A20009BB1F8B5134406460F46541E5D1E01E0D7
:103A3000AC4208D03A46304614F8011FFFF7DCFFCD
:103A4000431CF5D1F8BD0020F8BD0020704700BF31
:103A5000936810B5144613B91846536010BD00F0B2
:103A6000A3FD0023C4E9013310BD00BF2DE9F04FD1
:103A70000E4692461C4607469FB018B18369002B3C
:103A800000F0A880954B9E4200F0AA80944B9E4285
:103A900000F0B580934B9E4208BFFE68B3891807BB
:103AA00040F1A3803369002B00F09F800023202287
:103AB0000B9330239AF80010059401258A4C8DF859
:103AC00031208DF8323000297DD0D1460B4604E0FC
:103AD00019F8013F002B00F09480252BF8D1B9EBA9
:103AE0000A0B40F0918099F80030002B6BD0002336
:103AF0004FF0FF3209F10109CDE90723069309933D
:103B00008DF85B301C9304E0001B05FA00F01843AD
:103B10000690CA460522204619F8011B00F060FFF6
:103B2000069B0028F0D1D90644BF20228DF85B20E7
:103B30001A0748BF2B229AF8001048BF8DF85B2067
:103B40002A2972D1059A1168043200290592C0F21F
:103B5000A08009919AF801100AF1010A2E2976D065
:103B6000DFF888910322484600F03AFF48B140222E
:103B7000069BA0EB090002FA00F003430AF1010AD8
:103B800006931AF8011B062259488DF8301000F0F0
:103B900027FF002800F08380564B002B6CD005A92E
:103BA000009132463846544B06A9AFF3008003908B
:103BB000039B013307D00B9B039A9AF80010134420
:103BC0000B93002981D1B3895B0615D40B981FB0E4
:103BD000BDE8F08FFFF766FD404B9E427FF456AF85
:103BE0007E68B38918073FF55DAF3146384600F06F
:103BF00051FB00283FF45AAF4FF0FF30E7E7BE68B3
:103C00004CE7B9EB0A0BDED0D046CAF1010A03E05B
:103C1000934538D918F8011F32463846FFF7ECFEB5
:103C200001300AEB0802F3D1CDE7A1F13002092AF5
:103C300094D8099B1AF8011F03EB830302EB43039B
:103C4000A1F13002092AF5D92E29099388D19AF8D1
:103C500001102A292DD1059B0AF102001A680433AC
:103C6000002A0593B8BF4FF0FF339AF8021007926D
:103C70008246B8BF079373E7059B073323F007031A
:103C80000833059397E70B9A99F800305A440B9242
:103C90002BE7494243F00203099106935AE705A92D
:103CA000009132463846144B06A900F0CBF8039039
:103CB0007EE70023A1F13002092A0AF1010A0793E5
:103CC0003FF64EAF1AF8011F03EB830302EB4303E9
:103CD000A1F13002092AF5D9079341E74C5A0008AF
:103CE0002C5A00080C5A00086C5A0008745A000834
:103CF000785A000800000000213A00088C4600B500
:103D000086461346034A714610685DF804EB624626
:103D1000FFF7ACBE900000202DE9F04791461E460B
:103D20000A698B680C469A42B8BF1A46C9F8002047
:103D300091F843300546DDF8208013B10132C9F80F
:103D40000020226891065DD5D9F800300233C9F809
:103D50000030226812F0060F11461ED1E168CB1A1E
:103D6000002BD8BF114618DD002704F1190A06E020
:103D7000D9F80030E268A2EB030CBC450CDD01234E
:103D8000524631462846C047013007F10107EFD1BE
:103D90004FF0FF30BDE8F087216894F84330003BD6
:103DA00018BF01238A060AD53021E21882F8431091
:103DB00094F845105A1C2244023382F843103146CD
:103DC000284604F14302C0470130E1D0236803F0E4
:103DD0000603042B1DD0A3682269934225DD00272A
:103DE0009B1A1F4404F11A09002401E0BC421CDAAA
:103DF00001234A4631462846C047013004F10104F8
:103E0000F4D1C5E712F0060F12D0003B18BF012312
:103E1000D5E7D9F80030E1682269C91AA36821EA18
:103E2000E1779342DCDC0029DCDC0020BDE8F08790
:103E3000E168D9F80030CB1A002BD8BF114693DCCB
:103E4000ABE700BF2DE9F04317460A7E85B00C466C
:103E5000064698460C9D01F1430C002A33D0A2F18E
:103E60005803D9B2202967D8202B65D8DFE813F092
:103E7000DD006400640064006400640064006400A9
:103E8000640064006400A3006E00640064006400C9
:103E900064006E00640064006400640021007F0020
:103EA000BF0064006400AE0064007F006400640032
:103EB000E40023681A0640F102812B686269191D2B
:103EC00029601B681A600023E14623613B462146B6
:103ED0003046CDF8008003AAFFF71EFF013020D046
:103EE0004A46394630462369C047013019D0236815
:103EF000E0689B07039919D5431A002B16DD0025AE
:103F000004F1190904E0E0680399431AAB420DDD9E
:103F100001234A4639463046C047013005F10105C4
:103F2000F1D14FF0FF3005B0BDE8F0838842B8BF53
:103F3000084605B0BDE8F083012384F8422004F16F
:103F400042092361002384F84330BFE72368190640
:103F500002D45A0600F1BF8029680A68043129603A
:103F60001146002A6ADB0A25DFF87CE110E02368AD
:103F7000180640F19A802B68191D296019686F2A6C
:103F80000CBF08250A25DFF860E1002384F84330E0
:103F90006268002AA2607DDB236823F004032360AB
:103FA000002959D1002A77D1E146082D63D0ACEB26
:103FB000090323618AE701222B6804F14209196889
:103FC00004332B6084F842102261BBE72B68002188
:103FD0001A1D2A60D3F800906268484600F000FD80
:103FE00000287FD0A0EB090060602061AAE7236869
:103FF00043F0200323607822DFF8F0E084F84520C6
:104000002A68111D2960190642D45D0640D5118821
:10401000D80744BF43F020032360002943D123681D
:10402000102523F020032360AFE75823DFF8B8E022
:1040300084F845302368E3E72368DCE72D2284F821
:10404000432062684942002AA26002DB23F0040395
:1040500023600A25DFF890E0E146B1FBF5F30A465C
:1040600005FB131019461EF80030AA4209F8013D5D
:10407000F3D2082D9BD12368D90798D562682369AC
:104080009A4294DC302309F1FF3989F800308EE739
:104090001168BDE70029DFD19EF8003004F1420924
:1040A00084F8423081E710256FE713F0400F2B684A
:1040B00003F1040129600CBF196819885FE713F048
:1040C000400F2B68626903F1040129601B6814BF6B
:1040D0001A801A60F7E62A68B2F9001004322A60E2
:1040E0000A463EE7606880E7805A0008945A000854
:1040F000002238B5064D044608462A6000F0A0FFAD
:10410000431C00D038BD2B68002BFBD0236038BD8A
:104110004001002010B50C46B1F90E1000F0C6FDAC
:10412000002803DB636D0344636510BDA38923F49A
:104130008053A38110BD00BF002070472DE9F041DE
:104140000C46B1F90C101F46CB05054616460BD49C
:1041500021F48051A1813B4632462846B4F90E1025
:10416000BDE8F04100F080B8B4F90E10022300223F
:1041700000F092FBB4F90C10EAE700BF10B50C4652
:10418000B1F90E1000F088FBA389421C0EBF23F486
:10419000805343F480536065A38110BDB1F90E10C4
:1041A00000F002B9F8B506460D46144608B1836919
:1041B00043B3254B9C422AD0244B9C4229D0244B0C
:1041C0009C4208BFF468A269A389A2601A0722D59D
:1041D000236903B322686169D31AEDB299422F466D
:1041E00029DD0133A1680139A160511C21601570DE
:1041F00062699A4216D0A389DB0701D50A2D11D036
:104200003846F8BDFFF74EFA0F4B9C42D4D1746884
:10421000D9E7B468D7E72146304600F03BF838B913
:104220002369D7E72146304600F054F90028E7D04B
:104230004FF0FF37E4E72146304600F04BF9002805
:10424000F6D101232268CDE74C5A00082C5A000809
:104250000C5A000803460A46024908681946FFF747
:10426000A1BF00BF9000002038B50C4611460022C7
:104270008446074D20462A601A466446FDF702F838
:10428000431C00D038BD2B68002BFBD0236038BD09
:10429000400100203C4B70B51D6806460C460DB130
:1042A000AB69E3B1394B9C421FD0394B9C424DD096
:1042B000384B9C4208BFEC68B4F90C3018079AB22E
:1042C00019D5216911B312F001002FD000256069C2
:1042D000A5604042A06100292ED0002070BD284674
:1042E000FFF7E0F9294B9C42DFD16C68B4F90C3040
:1042F00018079AB2E5D4D1063ED5520728D42169D1
:1043000043F00803A3819AB20029DCD102F42070A3
:10431000B0F5007FD7D02146304600F0D3FAB4F98B
:104320000C3021699AB212F00100CFD1950758BF25
:104330006069A0600029D0D1120658BF0846CDD5CB
:1043400043F040034FF0FF30A38170BDAC68B3E78A
:10435000616B51B104F14402914204D03046FFF741
:1043600089FAB4F90C30002262630022216923F03B
:104370002403C4E90012C3E7092243F0400332607A
:104380004FF0FF30A38170BD900000204C5A000810
:104390002C5A00080C5A0008062008B500F032FD1F
:1043A000012000F05BFE00BF002238B5064D044638
:1043B00008462A6000F00CFE431C00D038BD2B6874
:1043C000002BFBD0236038BD40010020F8B58B895D
:1043D0000C46190707463BD46268002A55DDE66A99
:1043E000002E50D000223D683A6013F4805250D124
:1043F00001233846216AB047421C5CD0A389E66A93
:104400005B0705D56368C01A636B0BB1236CC01AD8
:104410000246216A00233846B047411C3BD13B6825
:10442000002B38D01D2B01D0162B4BD10023226935
:10443000C4E90023616B3D6029B304F14403994250
:1044400002D03846FFF716FA002318466363F8BD1A
:104450002669C6B19A0718BF0023256808BF63699B
:104460002660AD1BA3600CE02B463246D4F828C072
:104470003846216AE047B0F1000CA5EB0C05664414
:1044800012DD002DF0DC0020F8BD226C002AA6DC35
:10449000F9E7606DB4E70022236962602360A389B5
:1044A000DB04C7D56065C5E7A3894FF0FF3043F053
:1044B0004003A381F8BD3B68002B9FD01D2B06D085
:1044C000162B04D0A38943F04003A381F8BD00203C
:1044D0003D60F8BD38B50B69BBB10C46054608B167
:1044E0008369B3B10D4B9C4211D00D4B9C4213D04C
:1044F0000C4B9C4208BFEC68B4F90C302BB1214640
:104500002846BDE83840FFF761BF002038BD6C6821
:10451000F2E7FFF7C7F8E5E7AC68EDE74C5A0008AB
:104520002C5A00080C5A000838B540B303690446F9
:10453000E3B1174B1D680DB1AB69CBB1154B9C4274
:104540000FD0154B9C4221D0144B9C4208BFEC6805
:10455000B4F90C3053B121462846BDE83840FFF786
:1045600035BF6C68B4F90C30002BF4D1002038BD95
:104570002846FFF797F8074B9C42E2D1F1E7084B3A
:1045800008491868BDE83840FFF7EEB8AC68DFE7C7
:10459000900000204C5A00082C5A00080C5A0008C1
:1045A00078580008D54400089368002B00F0B780C5
:1045B0002DE9F04FB1F90C300C461907804617462B
:1045C00083B098B225D523691BB310F002033D6870
:1045D0002DD04FF0000B5E46DFF8B8A2002E00F0A1
:1045E0008B80564533465A4628BF53464046216A7B
:1045F000D4F828C0E047002840F38780BB68834494
:104600001B1A361ABB60002BE8D1002003B0BDE8AE
:10461000F08F21464046FFF73DFE002840F03681EE
:10462000B4F90C303D6898B210F00203D1D110F00B
:10463000010976D14E46002E5AD08205D4F808B032
:1046400040F1B580B3455A4600F2CD8010F4906F2A
:1046500000F0CB8023682169A3EB010B636903EBB6
:10466000430A0AEBDA7A0BF101034FEA6A0A334490
:104670005345524684BF9A465246430540F1EA806C
:1046800011464046FFF75CF9002800F0F9805A46D1
:104690002169019000F0ECF9A289019B22F490625B
:1046A00042F08002A28103EB0B0023613246AAEBA9
:1046B0000B03B346C4F814A0A3602060B2460026E2
:1046C0004946019200F04AFAA3682168019AA3EBD7
:1046D0000B030A44A3602260B868D144A0EB0A002F
:1046E000B860002891D0B4F90C0080B2002EA4D19B
:1046F000D5E9009608359EE7D5E900B608356DE79F
:1047000021464046FFF7E6FE80B3B4F90C304FF087
:10471000FF3043F04003A38103B0BDE8F08F0020D9
:1047200070471E46AA46994618461D4656B30028AD
:1047300032D04A4620682169B24228BF32468842B8
:10474000636904D9A16803EB010B5A4574DC9342F9
:1047500065DC2A464046216AD4F828C0E047B0F11B
:10476000000BD2DDB9EB0B09CAD00120BB685D4458
:10477000A3EB0B03A6EB0B06BB60002B3FF445AF8E
:10478000002ED4D10AF1080353F8046C9A4653F86A
:10479000085C0833002EF7D032460A21284600F084
:1047A0001FF9002869D00130A0EB0509C1E7206896
:1047B000236998421BD86369B34218D86FF0004C44
:1047C000B44528BFB4469CFBF3FC4A4603FB0CF3FC
:1047D0004046216AD4F828C0E047B0F1000A94DDD1
:1047E000A6EB0A0678E7B3463246206866E7B3458B
:1047F000DA4628BFB2464946524600F0AFF9A368F0
:104800002268A3EB0A035244A3602260002BE7D185
:1048100021464046FFF75EFE0028E1D075E72946B5
:104820009346019200F09AF9A368019A9B1AA3603B
:1048300023681A44226095E729465A4600F08EF90B
:10484000236821465B4440462360FFF743FE00286F
:1048500088D05AE7404600F001FA034600287FF46A
:1048600022AF40462169FFF705F80C22B4F90C305D
:10487000C8F8002023F0800349E7721C914659E7ED
:104880000C22B4F90C30C8F8002040E74FF0FF309C
:10489000BCE600BF00FCFF7F38B50C461146002285
:1048A0008446074D20462A601A46644600F0B8FB4D
:1048B000431C00D038BD2B68002BFBD0236038BDD3
:1048C00040010020F0B58B890C46990797B007D5B9
:1048D000012204F14703C4E90432236017B0F0BD9C
:1048E000B4F90E10054600292DDB6A4600F040FBA6
:1048F000002827DB019E4FF4806706F47046A6F57A
:104900000056B6FA86F6394628467609FFF718F8B3
:1049100030B3A3891A4A43F08003AA62C4E90407AA
:10492000A3812060002ED9D02846B4F90E1000F0E3
:1049300033FB0028D2D0A38923F0030343F0010303
:10494000A381CBE7A38913F0800F14BF40274FF456
:104950008067284639460026FEF7F2FF0028D8D1A6
:10496000B4F90C309A05B9D4012123F0030304F102
:10497000470243F00203C4E90421A3812260ADE7AA
:10498000B934000870B50C46B1F90E10164600296E
:104990001D4696B013DB6A4600F0EAFA00280EDBEB
:1049A00001994FF4806301F47041A1F50051B1FA0F
:1049B00081F1002049092960336016B070BD0022E2
:1049C000B4F90C302A601B0604D540230020336064
:1049D00016B070BD4FF480630020336016B070BD18
:1049E0005FFA81FC810710D00346511E2AB90AE004
:1049F0009A0718460AD0013905D3184613F8012B37
:104A00006245F5D1704700207047114603290CD844
:104A10000029F8D00346014401E08B42F3D0184648
:104A200013F8012B6245F8D1ECE7024610B54CEAC9
:104A30000C2444EA04441046036804326340A3F1A2
:104A4000013E2EEA030313F0803F04D10439032909
:104A50001046F0D851B10346014401E08B4205D025
:104A6000184613F8012B6245F8D110BD002010BD87
:104A7000844641EA000313F0030349D1403A23D3AB
:104A80000B6803604B6843608B688360CB68C360CE
:104A90000B6903614B6943618B698361CB69C361B6
:104AA0000B6A03624B6A43628B6A8362CB6AC3629E
:104AB0000B6B03634B6B43638B6B8363CB6BC36386
:104AC00040304031403ADBD230320BD30B680360C8
:104AD0004B6843608B688360CB68C36010301031D3
:104AE000103AF3D20C3205D351F8043B40F8043BA2
:104AF000043AF9D2043208D0D2071CBF11F8013BA6
:104B000000F8013B01D30B8803806046704700BF6B
:104B1000082A13D38B07B1D010F00303AED0C3F132
:104B20000403D21ADB071CBF11F8013B00F8013B5C
:104B3000A4D331F8023B20F8023B9FE7043AD9D3D3
:104B4000013A11F8013B00F8013BF9D20B780370F0
:104B50004B7843708B7883706046704788420DD9DC
:104B60008B1883420AD900EB020CBAB1624613F8E3
:104B700001CD994202F801CDF9D170470F2A0ED824
:104B8000034602F1FF3C4AB10CF1010C013B8C449D
:104B900011F8012B614503F8012FF9D1704740EA64
:104BA00001039B074FD1A2F1100370B501F1200C56
:104BB00023F00F0501F1100E00F11004AC441B09A5
:104BC0005EF8105C0EF1100E44F8105C5EF81C5C90
:104BD000103444F81C5C5EF8185C44F8185C5EF80D
:104BE000145CE64544F8145CEAD1013312F00C0F72
:104BF00001EB031102F00F0400EB031327D08E46E4
:104C0000043C24F003064FEA940C1E441C1F5EF87B
:104C1000045B44F8045FB442F9D10CF1010402F0E2
:104C2000030203EB840301EB840102F1FF3C4AB170
:104C30000CF1010C013B8C4411F8012B614503F888
:104C4000012FF9D170BD034602F1FF3C9CE72246DB
:104C5000EBE700BF704700BF704700BFF8B51446D0
:104C6000F9B1CAB106460D4600F0A8F9A04202D338
:104C70002F463846F8BD21463046FEF761FE07460E
:104C80000028F6D022462946FFF7F2FE3046294694
:104C9000FEF7F0FD3846F8BD2746FEF7EBFD384637
:104CA000F8BD1146BDE8F840FEF74ABE38B50C46DF
:104CB000114600228446074D20462A601A46644663
:104CC00000F0B6F9431C00D038BD2B68002BFBD098
:104CD000236038BD4001002038B5446C0CB1002081
:104CE00038BD80210546FEF72BFE0246686430B1D0
:104CF000031F7C3243F8044F9342FBD1EFE74FF0A0
:104D0000FF3038BD1F29F8B5054608D8466C0C465B
:104D100017464EB156F8240046F82470F8BD162305
:104D20004FF0FF302B60F8BD8021FEF709FE0646EC
:104D3000686440B10021031F00F17C0543F8041FA3
:104D40009D42FBD1E6E74FF0FF30F8BD1F2938B593
:104D5000054620D8426C0C466AB152F8213053B156
:104D6000012B16D0591C10D00025204642F82450A3
:104D70009847284638BD284600F0F8F822460146F4
:104D80002846BDE8384000F0DDB8162301202B602E
:104D900038BD002038BD16234FF0FF302B6038BDE2
:104DA0001F292BD8426C38B50C46054682B152F803
:104DB000243002EB84024BB1591C1AD0012B16D0BF
:104DC0000025204615609847284638BD012038BD8B
:104DD0008021FEF7B5FD0246686460B10020131F14
:104DE00002F17C0143F8040F9942FBD1DFE7032075
:104DF00038BD022038BD4FF0FF3038BD4FF0FF30D6
:104E0000704700BF38B5144B1F281D681FD86A6C47
:104E1000044662B152F820304BB1012B15D0591C19
:104E20000FD0002542F820509847284638BD284624
:104E300000F09CF8224601462846BDE8384000F0C4
:104E400081B8162301202B6038BD002038BD162301
:104E50004FF0FF302B6038BD90000020124B1F2810
:104E600070B51E6808D80D46716C044649B151F8FA
:104E7000240041F8245070BD16234FF0FF303360FA
:104E800070BD80213046FEF75BFD0146706440B185
:104E90000022031F00F17C0C43F8042F6345FBD173
:104EA000E5E74FF0FF3070BD9000002038B50B4BA8
:104EB0001D686C6C0CB1002038BD80212846FEF7BF
:104EC0003FFD686438B1031F00F17C0243F8044FD2
:104ED0009342FBD1EFE74FF0FF3038BD9000002048
:104EE00038B5174B1F281D6827D86A6C044682B155
:104EF00052F8243002EB84024BB1591C1BD0012B19
:104F000017D00025204615609847284638BD012057
:104F100038BD80212846FEF713FD0246686460B163
:104F20000020131F02F17C0143F8040F8B42FBD1D8
:104F3000DEE7032038BD022038BD4FF0FF3038BD1A
:104F40009000002070B50026074D04460846114623
:104F50002E6000F05DF8431C00D070BD2B68002B64
:104F6000FBD0236070BD00BF4001002000F040B8BE
:104F700070B50026074D0446084611462E6000F025
:104F80002FF8431C00D070BD2B68002BFBD0236092
:104F900070BD00BF40010020002238B5064D044618
:104FA00008462A6000F02CF8431C00D038BD2B685E
:104FB000002BFBD0236038BD4001002051F8040CC9
:104FC0000028A0F10400BCBF0B58C018704700BFF8
:104FD0005822024B4FF0FF301A607047400100200A
:104FE0005822024B4FF0FF301A60704740010020FA
:104FF0005822024B4FF0FF301A60704740010020EA
:105000005822024B00201A60704700BF4001002068
:105010005822024B4FF0FF301A60704740010020C9
:105020005822024B4FF0FF301A60704740010020B9
:105030005822024B4FF0FF301A60704740010020A9
:10504000044A05491368002B08BF0B46184410603A
:10505000184670474401002048010020FEE700BFC9
:1050600052554E5F5430000052554E5F543100008F
:1050700052554E5F5432000052554E5F543300007B
:1050800052554E5F5434000052554E5F5435000067
:1050900052554E5F5436000052554E5F5437000053
:1050A00052554E5F5438000052554E5F543900003F
:1050B00052554E5F5431300052554E5F54313100DD
:1050C00043414C49425241544500000048454C5030
:1050D000000000005345545F4C5444005345545F56
:1050E00043544C005345545F48554C005345545F5E
:1050F00048594C005345545F4E4C00005345545F93
:1051000050414746000000005345545F4954000099
:105110005345545F495243005345545F4C4200008D
:105120004C5444450000000048555348000000001E
:105130004C424800454F4C005345545F54530000C7
:10514000000000002000000043616C69627261741D
:10515000696F6E205430207374617274730A00009A
:1051600053657474696E67204E6F726D204C696D63
:1051700069746174696F6E2053746172740A0000FF
:1051800053657474696E67204879737465726573CA
:105190006973204C696D69746174696F6E20537412
:1051A0006172740A0000000053657474696E6720B0
:1051B00048757368204C696D69746174696F6E20FD
:1051C00053746172740A000053657474696E6720C9
:1051D00043482074657374204C696D697461746907
:1051E0006F6E2053746172740A0000004C544420A6
:1051F000424173656C696E650A000000536572690F
:10520000616C20526561642F57726974650A0000F1
:105210004E6F726D204C696D69746174696F6E2098
:10522000636865636B2053746172740A0000000048
:1052300048797374657265736973204C696D69741C
:105240006174696F6E20636865636B20537461726B
:10525000740A000048757368204C696D6974617444
:10526000696F6E20636865636B2053746172740AA2
:105270000000000043682054657374206C696D69F8
:10528000746174696F6E20636865636B2053746129
:1052900072740A00486F726E2074657374207374A0
:1052A0006172740A0000000043616C69627261748B
:1052B000696F6E2073746172740A0000496E7661C2
:1052C0006C696420617267756D656E740A00000018
:1052D0004C6F6E67205465726D204472696674204D
:1052E00053616D706C652073657420746F3A20256E
:1052F000640A00004368616D6265722054657374CE
:10530000204C696D6974732073657420746F3A2042
:1053100025640A0048757368204C696D69747320B0
:1053200073657420746F3A2025640A004879737499
:10533000657265736973204C696D69747320736558
:105340007420746F3A2025640A0000004E6F726D5D
:10535000616C204C696D6974732073657420746F7F
:105360003A2025640A00000050686F746F20416D78
:10537000706C6966696572204761696E2046616379
:10538000746F722073657420746F3A2025640A006C
:10539000496E746567726174696F6E2054696D65DA
:1053A0002073657420746F3A2025640A00000000A1
:1053B000495245442043757272656E74207365745A
:1053C00020746F3A2025640A000000004C6F77209B
:1053D00042617474657279205472697020506F69EB
:1053E0006E742073657420746F3A2025640A00007F
:1053F0004C6F6E672D5465726D204472696674201F
:10540000456E61626C650A004C6F6E672D54657263
:105410006D2044726966742044697361626C650A28
:1054200000000000496E76616C69642061726775E6
:105430006D656E74200A0000487573682043616EC4
:1054400063656C65640A000048757368204E657674
:1054500065722043616E63656C0A00004C6F7720B3
:1054600042617474657279204875736820456E6175
:10547000626C650A000000004C6F77204261747412
:1054800065727920487573682044697361626C6540
:105490000A000000456E64206F66204C6966652036
:1054A000456E61626C650A00456E64206F66204C33
:1054B0006966652044697361626C650A00000000DA
:1054C00054656D706F72616C20486F726E20506110
:1054D000747465726E0A0000436F6E74696E756F46
:1054E000757320486F726E205061747465726E0A15
:1054F00000000000496E76616C696420434D4420D1
:1055000025730A0023232323232323232323232355
:10551000232323232323232323232323232323235B
:10552000232323232323232323232323232323234B
:10553000232323232323232323232323232323233B
:10554000090A2A0957656C636F6D6520746F2074B2
:10555000686520524534364331303920736D6F6BA6
:10556000652073656E736F722070726F6772616D04
:105570006D65722A2020202A090A2A092D205479D3
:105580007065202A48454C502A20746F207072693B
:105590006E742074686973206D656E7520202020FC
:1055A0002020202020202020202020202020202AF1
:1055B000090A2323232323232323232323232323EE
:1055C00023232323232323232323232323232323AB
:1055D000232323232323232323232323232323239B
:1055E0002323232323232323232323232323090ABE
:1055F0000A2A092D2052554E5F54302020746F2006
:1056000072756E2054302063616C696272617469D6
:105610006F6E206D6F6465202020202020202020C8
:105620002020202020202A090A2A092D2052554E08
:105630005F54362020746F2072756E2054362072AD
:105640006561642F7772697465206D6F64652020D1
:1056500020202020202020202020202020202A0957
:105660000A2A092D2052554E5F54372020746F208E
:1056700072756E204E6F726D616C204C696D69742D
:10568000732074657374206D6F6465202020202062
:105690002020202020202A090A2A092D2052554E98
:1056A0005F54382020746F2072756E2048797374AF
:1056B000657265736973204C696D697473207465D4
:1056C0007374206D6F6465202020202020202A091B
:1056D0000A2A092D2052554E5F54392020746F201C
:1056E00072756E2048757368204C696D69747320FB
:1056F00074657374206D6F64652020202020202045
:105700002020202020202A090A2A092D2052554E27
:105710005F5431302020746F2072756E20436861B1
:105720006D6265722054657374204C696D69747381
:105730002074657374206D6F6465202020202A0911
:105740000A2A092D2052554E5F5431312020746FA2
:105750002072756E20686F726E20546573742020FD
:105760002020202020202020202020202020202039
:105770002020202020202A090A0A23232323232350
:1057800023232323232323232323232323232323E9
:1057900023232323232323232323232323232323D9
:1057A00023232323232323232323232323232323C9
:1057B000232323232323090A000000000000010003
:1057C000000100000000000000366E0100366E018E
:1057D00000366E010000000002000200000100001F
:1057E000000000000048E8010048E8010048E80126
:1057F00000000000000000000000000000000000A9
:105800000024F4000024F4000024F4000000000050
:1058100000000000000009000000000000093D0039
:1058200000093D0000093D000000000000000000EC
:105830000000000000000000D0FE3F00D0FE3F004E
:10584000D0FE3F0006000000000000000000000045
:105850000000000068FF1F0068FF1F0068FF1F00B6
:1058600005000000000000000000000000003043C0
:1058700000000000000030C3940000205245454E57
:1058800054206D616C6C6F63207375636365656430
:10589000656400002E2E2F2E2E2F2E2E2F2E2E2F13
:1058A0002E2E2F2E2E2F2E2E2F2E2E2F6E65776C16
:1058B00069622F6C6962632F737472696E672F73EC
:1058C0007472746F6B2E63002C2066756E6374693E
:1058D0006F6E3A2000000000617373657274696F27
:1058E0006E2022257322206661696C65643A206609
:1058F000696C6520222573222C206C696E65202539
:1059000064257325730A0000002020202020202019
:10591000202028282828282020202020202020205F
:10592000202020202020202020881010101010106F
:1059300010101010101010101004040404040404BB
:105940000404041010101010101041414141414155
:105950000101010101010101010101010101010137
:105960000101010110101010101042424242424247
:105970000202020202020202020202020202020207
:1059800002020202101010102000000000000000AF
:105990000000000000000000000000000000000007
:1059A00000000000000000000000000000000000F7
:1059B00000000000000000000000000000000000E7
:1059C00000000000000000000000000000000000D7
:1059D00000000000000000000000000000000000C7
:1059E00000000000000000000000000000000000B7
:1059F00000000000000000000000000000000000A7
:105A00000000000000000000000000000000000096
:105A10000000000000000000000000000000000086
:105A20000000000000000000000000000000000076
:105A30000000000000000000000000000000000066
:105A40000000000000000000000000000000000056
:105A50000000000000000000000000000000000046
:105A6000000000000000000000000000232D302B8B
:105A700020000000686C4C006566674546470000E2
:105A80003031323334353637383941424344454674
:105A90000000000030313233343536373839616236
:085AA00063646566000000006C
:105AA8000100000000000000060000304200000075
:105AB80060500008685000087050000878500008CE
:105AC800805000088850000890500008985000083E
